{
  "_format": "hh-sol-artifact-1",
  "contractName": "Transactions",
  "sourceName": "contracts/Transactions.sol",
  "abi": [
    {
      "anonymous": false,
      "inputs": [
        {
          "indexed": true,
          "internalType": "address",
          "name": "from",
          "type": "address"
        },
        {
          "indexed": true,
          "internalType": "address",
          "name": "to",
          "type": "address"
        },
        {
          "indexed": false,
          "internalType": "uint256",
          "name": "value",
          "type": "uint256"
        },
        {
          "indexed": false,
          "internalType": "string",
          "name": "message",
          "type": "string"
        },
        {
          "indexed": false,
          "internalType": "uint256",
          "name": "timestamp",
          "type": "uint256"
        },
        {
          "indexed": false,
          "internalType": "string",
          "name": "keyword",
          "type": "string"
        }
      ],
      "name": "Transfer",
      "type": "event"
    },
    {
      "inputs": [
        {
          "internalType": "address payable",
          "name": "receiver",
          "type": "address"
        },
        {
          "internalType": "uint256",
          "name": "amount",
          "type": "uint256"
        },
        {
          "internalType": "string",
          "name": "message",
          "type": "string"
        },
        {
          "internalType": "string",
          "name": "keyword",
          "type": "string"
        }
      ],
      "name": "addToBlock",
      "outputs": [],
      "stateMutability": "nonpayable",
      "type": "function"
    },
    {
      "inputs": [],
      "name": "getAllTransfer",
      "outputs": [
        {
          "components": [
            {
              "internalType": "address",
              "name": "from",
              "type": "address"
            },
            {
              "internalType": "address",
              "name": "to",
              "type": "address"
            },
            {
              "internalType": "uint256",
              "name": "value",
              "type": "uint256"
            },
            {
              "internalType": "string",
              "name": "message",
              "type": "string"
            },
            {
              "internalType": "uint256",
              "name": "timestamp",
              "type": "uint256"
            },
            {
              "internalType": "string",
              "name": "keyword",
              "type": "string"
            }
          ],
          "internalType": "struct Transactions.TransferStruct[]",
          "name": "",
          "type": "tuple[]"
        }
      ],
      "stateMutability": "view",
      "type": "function"
    },
    {
      "inputs": [],
      "name": "getTransferCount",
      "outputs": [
        {
          "internalType": "uint256",
          "name": "",
          "type": "uint256"
        }
      ],
      "stateMutability": "view",
      "type": "function"
    }
  ],
  "bytecode": "0x608060405234801561001057600080fd5b50610bb8806100206000396000f3fe608060405234801561001057600080fd5b50600436106100415760003560e01c8063040e55f514610046578063357bb2a814610064578063dd9f654914610080575b600080fd5b61004e61009e565b60405161005b9190610876565b60405180910390f35b61007e60048036038101906100799190610609565b6100a7565b005b610088610291565b6040516100959190610854565b60405180910390f35b60008054905090565b6000808154809291906100b990610a6d565b919050555060016040518060c001604052808673ffffffffffffffffffffffffffffffffffffffff1681526020013373ffffffffffffffffffffffffffffffffffffffff16815260200185815260200184815260200142815260200183815250908060018154018082558091505060019003906000526020600020906006020160009091909190915060008201518160000160006101000a81548173ffffffffffffffffffffffffffffffffffffffff021916908373ffffffffffffffffffffffffffffffffffffffff16021790555060208201518160010160006101000a81548173ffffffffffffffffffffffffffffffffffffffff021916908373ffffffffffffffffffffffffffffffffffffffff1602179055506040820151816002015560608201518160030190805190602001906101f69291906104d4565b506080820151816004015560a082015181600501908051906020019061021d9291906104d4565b5050503373ffffffffffffffffffffffffffffffffffffffff168473ffffffffffffffffffffffffffffffffffffffff167f416cfa4330a4565f45c2fd2dd4826a83a37443aba2ce6f79477c7355afac35fa858542866040516102839493929190610891565b60405180910390a350505050565b60606001805480602002602001604051908101604052809291908181526020016000905b828210156104cb57838290600052602060002090600602016040518060c00160405290816000820160009054906101000a900473ffffffffffffffffffffffffffffffffffffffff1673ffffffffffffffffffffffffffffffffffffffff1673ffffffffffffffffffffffffffffffffffffffff1681526020016001820160009054906101000a900473ffffffffffffffffffffffffffffffffffffffff1673ffffffffffffffffffffffffffffffffffffffff1673ffffffffffffffffffffffffffffffffffffffff1681526020016002820154815260200160038201805461039e90610a3b565b80601f01602080910402602001604051908101604052809291908181526020018280546103ca90610a3b565b80156104175780601f106103ec57610100808354040283529160200191610417565b820191906000526020600020905b8154815290600101906020018083116103fa57829003601f168201915b505050505081526020016004820154815260200160058201805461043a90610a3b565b80601f016020809104026020016040519081016040528092919081815260200182805461046690610a3b565b80156104b35780601f10610488576101008083540402835291602001916104b3565b820191906000526020600020905b81548152906001019060200180831161049657829003601f168201915b505050505081525050815260200190600101906102b5565b50505050905090565b8280546104e090610a3b565b90600052602060002090601f0160209004810192826105025760008555610549565b82601f1061051b57805160ff1916838001178555610549565b82800160010185558215610549579182015b8281111561054857825182559160200191906001019061052d565b5b509050610556919061055a565b5090565b5b8082111561057357600081600090555060010161055b565b5090565b600061058a61058584610915565b6108e4565b9050828152602081018484840111156105a257600080fd5b6105ad8482856109f9565b509392505050565b6000813590506105c481610b54565b92915050565b600082601f8301126105db57600080fd5b81356105eb848260208601610577565b91505092915050565b60008135905061060381610b6b565b92915050565b6000806000806080858703121561061f57600080fd5b600061062d878288016105b5565b945050602061063e878288016105f4565b935050604085013567ffffffffffffffff81111561065b57600080fd5b610667878288016105ca565b925050606085013567ffffffffffffffff81111561068457600080fd5b610690878288016105ca565b91505092959194509250565b60006106a883836107a6565b905092915050565b6106b9816109ab565b82525050565b60006106ca82610955565b6106d48185610978565b9350836020820285016106e685610945565b8060005b858110156107225784840389528151610703858261069c565b945061070e8361096b565b925060208a019950506001810190506106ea565b50829750879550505050505092915050565b600061073f82610960565b6107498185610989565b9350610759818560208601610a08565b61076281610b43565b840191505092915050565b600061077882610960565b610782818561099a565b9350610792818560208601610a08565b61079b81610b43565b840191505092915050565b600060c0830160008301516107be60008601826106b0565b5060208301516107d160208601826106b0565b5060408301516107e46040860182610836565b50606083015184820360608601526107fc8282610734565b91505060808301516108116080860182610836565b5060a083015184820360a08601526108298282610734565b9150508091505092915050565b61083f816109ef565b82525050565b61084e816109ef565b82525050565b6000602082019050818103600083015261086e81846106bf565b905092915050565b600060208201905061088b6000830184610845565b92915050565b60006080820190506108a66000830187610845565b81810360208301526108b8818661076d565b90506108c76040830185610845565b81810360608301526108d9818461076d565b905095945050505050565b6000604051905081810181811067ffffffffffffffff8211171561090b5761090a610b14565b5b8060405250919050565b600067ffffffffffffffff8211156109305761092f610b14565b5b601f19601f8301169050602081019050919050565b6000819050602082019050919050565b600081519050919050565b600081519050919050565b6000602082019050919050565b600082825260208201905092915050565b600082825260208201905092915050565b600082825260208201905092915050565b60006109b6826109cf565b9050919050565b60006109c8826109cf565b9050919050565b600073ffffffffffffffffffffffffffffffffffffffff82169050919050565b6000819050919050565b82818337600083830152505050565b60005b83811015610a26578082015181840152602081019050610a0b565b83811115610a35576000848401525b50505050565b60006002820490506001821680610a5357607f821691505b60208210811415610a6757610a66610ae5565b5b50919050565b6000610a78826109ef565b91507fffffffffffffffffffffffffffffffffffffffffffffffffffffffffffffffff821415610aab57610aaa610ab6565b5b600182019050919050565b7f4e487b7100000000000000000000000000000000000000000000000000000000600052601160045260246000fd5b7f4e487b7100000000000000000000000000000000000000000000000000000000600052602260045260246000fd5b7f4e487b7100000000000000000000000000000000000000000000000000000000600052604160045260246000fd5b6000601f19601f8301169050919050565b610b5d816109bd565b8114610b6857600080fd5b50565b610b74816109ef565b8114610b7f57600080fd5b5056fea2646970667358221220ab9b61c5cefbfe97f41c83ae1205224296ba1283e63e9b11f37bbd3a3af2dddb64736f6c63430008000033",
  "linkReferences": {},
  "deployedLinkReferences": {}
}